{
  "contractName": "SupplyChain",
  "abi": [
    {
      "constant": true,
      "inputs": [
        {
          "name": "",
          "type": "uint32"
        },
        {
          "name": "",
          "type": "uint256"
        }
      ],
      "name": "productTrack",
      "outputs": [
        {
          "name": "",
          "type": "uint32"
        }
      ],
      "payable": false,
      "stateMutability": "view",
      "type": "function"
    },
    {
      "constant": true,
      "inputs": [
        {
          "name": "",
          "type": "uint32"
        }
      ],
      "name": "participants",
      "outputs": [
        {
          "name": "userName",
          "type": "string"
        },
        {
          "name": "participantType",
          "type": "uint8"
        },
        {
          "name": "participantAddress",
          "type": "address"
        }
      ],
      "payable": false,
      "stateMutability": "view",
      "type": "function"
    },
    {
      "constant": true,
      "inputs": [
        {
          "name": "",
          "type": "uint32"
        }
      ],
      "name": "ownerships",
      "outputs": [
        {
          "name": "productId",
          "type": "uint32"
        },
        {
          "name": "productOwner",
          "type": "address"
        },
        {
          "name": "trxTimeStamp",
          "type": "uint32"
        },
        {
          "name": "price",
          "type": "uint32"
        }
      ],
      "payable": false,
      "stateMutability": "view",
      "type": "function"
    },
    {
      "constant": true,
      "inputs": [
        {
          "name": "",
          "type": "uint32"
        }
      ],
      "name": "products",
      "outputs": [
        {
          "name": "modelNumber",
          "type": "string"
        },
        {
          "name": "partNumber",
          "type": "string"
        },
        {
          "name": "serialNumber",
          "type": "string"
        },
        {
          "name": "cost",
          "type": "uint32"
        },
        {
          "name": "mfgTimeStamp",
          "type": "uint32"
        },
        {
          "name": "productOwner",
          "type": "address"
        }
      ],
      "payable": false,
      "stateMutability": "view",
      "type": "function"
    },
    {
      "anonymous": false,
      "inputs": [
        {
          "indexed": true,
          "name": "productId",
          "type": "uint32"
        },
        {
          "indexed": true,
          "name": "from",
          "type": "address"
        },
        {
          "indexed": true,
          "name": "to",
          "type": "address"
        }
      ],
      "name": "TransferOwnership",
      "type": "event"
    },
    {
      "anonymous": false,
      "inputs": [
        {
          "indexed": true,
          "name": "participantId",
          "type": "uint32"
        }
      ],
      "name": "ParticipantAdded",
      "type": "event"
    },
    {
      "anonymous": false,
      "inputs": [
        {
          "indexed": true,
          "name": "productId",
          "type": "uint32"
        }
      ],
      "name": "ProductAdded",
      "type": "event"
    },
    {
      "constant": false,
      "inputs": [
        {
          "name": "_name",
          "type": "string"
        },
        {
          "name": "_pAdd",
          "type": "address"
        },
        {
          "name": "_pType",
          "type": "uint8"
        }
      ],
      "name": "addParticipant",
      "outputs": [
        {
          "name": "",
          "type": "uint32"
        }
      ],
      "payable": false,
      "stateMutability": "nonpayable",
      "type": "function"
    },
    {
      "constant": false,
      "inputs": [
        {
          "name": "_ownerId",
          "type": "uint32"
        },
        {
          "name": "_modelNumber",
          "type": "string"
        },
        {
          "name": "_partNumber",
          "type": "string"
        },
        {
          "name": "_serialNumber",
          "type": "string"
        },
        {
          "name": "_productCost",
          "type": "uint32"
        }
      ],
      "name": "addProduct",
      "outputs": [
        {
          "name": "",
          "type": "uint32"
        }
      ],
      "payable": false,
      "stateMutability": "nonpayable",
      "type": "function"
    },
    {
      "constant": false,
      "inputs": [
        {
          "name": "_user1Id",
          "type": "uint32"
        },
        {
          "name": "_user2Id",
          "type": "uint32"
        },
        {
          "name": "_prodId",
          "type": "uint32"
        },
        {
          "name": "_newPrice",
          "type": "uint32"
        }
      ],
      "name": "transferOwnership",
      "outputs": [],
      "payable": false,
      "stateMutability": "nonpayable",
      "type": "function"
    },
    {
      "constant": true,
      "inputs": [
        {
          "name": "_productId",
          "type": "uint32"
        }
      ],
      "name": "getProduct",
      "outputs": [
        {
          "name": "",
          "type": "string"
        },
        {
          "name": "",
          "type": "string"
        },
        {
          "name": "",
          "type": "string"
        },
        {
          "name": "",
          "type": "uint32"
        },
        {
          "name": "",
          "type": "address"
        },
        {
          "name": "",
          "type": "uint32"
        }
      ],
      "payable": false,
      "stateMutability": "view",
      "type": "function"
    },
    {
      "constant": true,
      "inputs": [
        {
          "name": "_participantId",
          "type": "uint32"
        }
      ],
      "name": "getParticipant",
      "outputs": [
        {
          "name": "",
          "type": "string"
        },
        {
          "name": "",
          "type": "uint8"
        },
        {
          "name": "",
          "type": "address"
        }
      ],
      "payable": false,
      "stateMutability": "view",
      "type": "function"
    },
    {
      "constant": true,
      "inputs": [
        {
          "name": "_prodId",
          "type": "uint32"
        }
      ],
      "name": "getProvenance",
      "outputs": [
        {
          "name": "",
          "type": "uint32[]"
        },
        {
          "name": "",
          "type": "uint32[]"
        },
        {
          "name": "",
          "type": "uint32[]"
        }
      ],
      "payable": false,
      "stateMutability": "view",
      "type": "function"
    },
    {
      "constant": true,
      "inputs": [
        {
          "name": "_ownershipId",
          "type": "uint32"
        }
      ],
      "name": "getOwnership",
      "outputs": [
        {
          "name": "",
          "type": "uint32"
        },
        {
          "name": "",
          "type": "address"
        },
        {
          "name": "",
          "type": "uint32"
        },
        {
          "name": "",
          "type": "uint32"
        }
      ],
      "payable": false,
      "stateMutability": "view",
      "type": "function"
    }
  ],
  "bytecode": "0x608060405260008060006101000a81548163ffffffff021916908363ffffffff16021790555060008060046101000a81548163ffffffff021916908363ffffffff16021790555060008060086101000a81548163ffffffff021916908363ffffffff16021790555034801561007357600080fd5b506127f3806100836000396000f3fe608060405234801561001057600080fd5b50600436106100a95760003560e01c806381e156101161007157806381e1561014610627578063a638ac49146106d4578063b717973b146108b2578063bf712fd614610916578063c856956514610af4578063df6d23f114610c0d576100a9565b80631a074802146100ae578063224525c71461010c5780633b26a65d1461021457806350632104146103095780637d0a9ac914610532575b600080fd5b6100ea600480360360408110156100c457600080fd5b81019080803563ffffffff16906020019092919080359060200190929190505050610cba565b604051808263ffffffff1663ffffffff16815260200191505060405180910390f35b6101f26004803603606081101561012257600080fd5b810190808035906020019064010000000081111561013f57600080fd5b82018360208201111561015157600080fd5b8035906020019184600183028401116401000000008311171561017357600080fd5b91908080601f016020809104026020016040519081016040528093929190818152602001838380828437600081840152601f19601f820116905080830192505050505050509192919290803573ffffffffffffffffffffffffffffffffffffffff169060200190929190803560ff169060200190929190505050610d00565b604051808263ffffffff1663ffffffff16815260200191505060405180910390f35b6102466004803603602081101561022a57600080fd5b81019080803563ffffffff169060200190929190505050610e68565b604051808060200184600481111561025a57fe5b60ff1681526020018373ffffffffffffffffffffffffffffffffffffffff1673ffffffffffffffffffffffffffffffffffffffff168152602001828103825285818151815260200191508051906020019080838360005b838110156102cc5780820151818401526020810190506102b1565b50505050905090810190601f1680156102f95780820380516001836020036101000a031916815260200191505b5094505050505060405180910390f35b610510600480360360a081101561031f57600080fd5b81019080803563ffffffff1690602001909291908035906020019064010000000081111561034c57600080fd5b82018360208201111561035e57600080fd5b8035906020019184600183028401116401000000008311171561038057600080fd5b91908080601f016020809104026020016040519081016040528093929190818152602001838380828437600081840152601f19601f820116905080830192505050505050509192919290803590602001906401000000008111156103e357600080fd5b8201836020820111156103f557600080fd5b8035906020019184600183028401116401000000008311171561041757600080fd5b91908080601f016020809104026020016040519081016040528093929190818152602001838380828437600081840152601f19601f8201169050808301925050505050505091929192908035906020019064010000000081111561047a57600080fd5b82018360208201111561048c57600080fd5b803590602001918460018302840111640100000000831117156104ae57600080fd5b91908080601f016020809104026020016040519081016040528093929190818152602001838380828437600081840152601f19601f820116905080830192505050505050509192919290803563ffffffff169060200190929190505050610fe6565b604051808263ffffffff1663ffffffff16815260200191505060405180910390f35b6105646004803603602081101561054857600080fd5b81019080803563ffffffff1690602001909291905050506112a1565b604051808060200184600481111561057857fe5b60ff1681526020018373ffffffffffffffffffffffffffffffffffffffff1673ffffffffffffffffffffffffffffffffffffffff168152602001828103825285818151815260200191508051906020019080838360005b838110156105ea5780820151818401526020810190506105cf565b50505050905090810190601f1680156106175780820380516001836020036101000a031916815260200191505b5094505050505060405180910390f35b6106596004803603602081101561063d57600080fd5b81019080803563ffffffff169060200190929190505050611390565b604051808563ffffffff1663ffffffff1681526020018473ffffffffffffffffffffffffffffffffffffffff1673ffffffffffffffffffffffffffffffffffffffff1681526020018363ffffffff1663ffffffff1681526020018263ffffffff1663ffffffff16815260200194505050505060405180910390f35b610706600480360360208110156106ea57600080fd5b81019080803563ffffffff169060200190929190505050611410565b604051808060200180602001806020018763ffffffff1663ffffffff1681526020018673ffffffffffffffffffffffffffffffffffffffff1673ffffffffffffffffffffffffffffffffffffffff1681526020018563ffffffff1663ffffffff16815260200184810384528a818151815260200191508051906020019080838360005b838110156107a4578082015181840152602081019050610789565b50505050905090810190601f1680156107d15780820380516001836020036101000a031916815260200191505b50848103835289818151815260200191508051906020019080838360005b8381101561080a5780820151818401526020810190506107ef565b50505050905090810190601f1680156108375780820380516001836020036101000a031916815260200191505b50848103825288818151815260200191508051906020019080838360005b83811015610870578082015181840152602081019050610855565b50505050905090810190601f16801561089d5780820380516001836020036101000a031916815260200191505b50995050505050505050505060405180910390f35b610914600480360360808110156108c857600080fd5b81019080803563ffffffff169060200190929190803563ffffffff169060200190929190803563ffffffff169060200190929190803563ffffffff169060200190929190505050611713565b005b6109486004803603602081101561092c57600080fd5b81019080803563ffffffff169060200190929190505050611e7b565b604051808060200180602001806020018763ffffffff1663ffffffff1681526020018663ffffffff1663ffffffff1681526020018573ffffffffffffffffffffffffffffffffffffffff1673ffffffffffffffffffffffffffffffffffffffff16815260200184810384528a818151815260200191508051906020019080838360005b838110156109e65780820151818401526020810190506109cb565b50505050905090810190601f168015610a135780820380516001836020036101000a031916815260200191505b50848103835289818151815260200191508051906020019080838360005b83811015610a4c578082015181840152602081019050610a31565b50505050905090810190601f168015610a795780820380516001836020036101000a031916815260200191505b50848103825288818151815260200191508051906020019080838360005b83811015610ab2578082015181840152602081019050610a97565b50505050905090810190601f168015610adf5780820380516001836020036101000a031916815260200191505b50995050505050505050505060405180910390f35b610b2660048036036020811015610b0a57600080fd5b81019080803563ffffffff1690602001909291905050506120bf565b60405180806020018060200180602001848103845287818151815260200191508051906020019060200280838360005b83811015610b71578082015181840152602081019050610b56565b50505050905001848103835286818151815260200191508051906020019060200280838360005b83811015610bb3578082015181840152602081019050610b98565b50505050905001848103825285818151815260200191508051906020019060200280838360005b83811015610bf5578082015181840152602081019050610bda565b50505050905001965050505050505060405180910390f35b610c3f60048036036020811015610c2357600080fd5b81019080803563ffffffff169060200190929190505050612369565b604051808563ffffffff1663ffffffff1681526020018473ffffffffffffffffffffffffffffffffffffffff1673ffffffffffffffffffffffffffffffffffffffff1681526020018363ffffffff1663ffffffff1681526020018263ffffffff1663ffffffff16815260200194505050505060405180910390f35b60046020528160005260406000208181548110610cd357fe5b9060005260206000209060089182820401919006600402915091509054906101000a900463ffffffff1681565b6000806000600481819054906101000a900463ffffffff168092919060010191906101000a81548163ffffffff021916908363ffffffff16021790555090506040518060600160405280868152602001846004811115610d5c57fe5b81526020018573ffffffffffffffffffffffffffffffffffffffff16815250600260008363ffffffff1663ffffffff1681526020019081526020016000206000820151816000019080519060200190610db6929190612554565b5060208201518160010160006101000a81548160ff02191690836004811115610ddb57fe5b021790555060408201518160010160016101000a81548173ffffffffffffffffffffffffffffffffffffffff021916908373ffffffffffffffffffffffffffffffffffffffff1602179055509050508063ffffffff167f6fcb9d018504c0b1d3044f5b2ddb31fdb32b68f679b251577df346974255d18760405160405180910390a2809150509392505050565b6060600080610e756125d4565b600260008663ffffffff1663ffffffff168152602001908152602001600020604051806060016040529081600082018054600181600116156101000203166002900480601f016020809104026020016040519081016040528092919081815260200182805460018160011615610100020316600290048015610f385780601f10610f0d57610100808354040283529160200191610f38565b820191906000526020600020905b815481529060010190602001808311610f1b57829003601f168201915b505050505081526020016001820160009054906101000a900460ff166004811115610f5f57fe5b6004811115610f6a57fe5b81526020016001820160019054906101000a900473ffffffffffffffffffffffffffffffffffffffff1673ffffffffffffffffffffffffffffffffffffffff1673ffffffffffffffffffffffffffffffffffffffff16815250509050806000015181602001518260400151829250935093509350509193909250565b6000806004811115610ff457fe5b600260008863ffffffff1663ffffffff16815260200190815260200160002060010160009054906101000a900460ff16600481111561102f57fe5b14611085576040517f08c379a00000000000000000000000000000000000000000000000000000000081526004018080602001828103825260238152602001806127486023913960400191505060405180910390fd5b600080600081819054906101000a900463ffffffff168092919060010191906101000a81548163ffffffff021916908363ffffffff16021790555090506040518060c001604052808781526020018681526020018581526020018463ffffffff1681526020014263ffffffff168152602001600260008a63ffffffff1663ffffffff16815260200190815260200160002060010160019054906101000a900473ffffffffffffffffffffffffffffffffffffffff1673ffffffffffffffffffffffffffffffffffffffff16815250600160008363ffffffff1663ffffffff168152602001908152602001600020600082015181600001908051906020019061118e929190612554565b5060208201518160010190805190602001906111ab929190612554565b5060408201518160020190805190602001906111c8929190612554565b5060608201518160030160006101000a81548163ffffffff021916908363ffffffff16021790555060808201518160030160046101000a81548163ffffffff021916908363ffffffff16021790555060a08201518160030160086101000a81548173ffffffffffffffffffffffffffffffffffffffff021916908373ffffffffffffffffffffffffffffffffffffffff1602179055509050508063ffffffff167fd130eef2a4b1fc2b06adaa30be6197331ddffdc41144025a669f49a2096a114b60405160405180910390a28091505095945050505050565b6002602052806000526040600020600091509050806000018054600181600116156101000203166002900480601f01602080910402602001604051908101604052809291908181526020018280546001816001161561010002031660029004801561134d5780601f106113225761010080835404028352916020019161134d565b820191906000526020600020905b81548152906001019060200180831161133057829003601f168201915b5050505050908060010160009054906101000a900460ff16908060010160019054906101000a900473ffffffffffffffffffffffffffffffffffffffff16905083565b60036020528060005260406000206000915090508060000160009054906101000a900463ffffffff16908060000160049054906101000a900473ffffffffffffffffffffffffffffffffffffffff16908060000160189054906101000a900463ffffffff169080600001601c9054906101000a900463ffffffff16905084565b60608060606000806000611422612616565b600160008963ffffffff1663ffffffff1681526020019081526020016000206040518060c0016040529081600082018054600181600116156101000203166002900480601f0160208091040260200160405190810160405280929190818152602001828054600181600116156101000203166002900480156114e55780601f106114ba576101008083540402835291602001916114e5565b820191906000526020600020905b8154815290600101906020018083116114c857829003601f168201915b50505050508152602001600182018054600181600116156101000203166002900480601f0160208091040260200160405190810160405280929190818152602001828054600181600116156101000203166002900480156115875780601f1061155c57610100808354040283529160200191611587565b820191906000526020600020905b81548152906001019060200180831161156a57829003601f168201915b50505050508152602001600282018054600181600116156101000203166002900480601f0160208091040260200160405190810160405280929190818152602001828054600181600116156101000203166002900480156116295780601f106115fe57610100808354040283529160200191611629565b820191906000526020600020905b81548152906001019060200180831161160c57829003601f168201915b505050505081526020016003820160009054906101000a900463ffffffff1663ffffffff1663ffffffff1681526020016003820160049054906101000a900463ffffffff1663ffffffff1663ffffffff1681526020016003820160089054906101000a900473ffffffffffffffffffffffffffffffffffffffff1673ffffffffffffffffffffffffffffffffffffffff1673ffffffffffffffffffffffffffffffffffffffff1681525050905080600001518160200151826040015183606001518460a0015185608001518595508494508393509650965096509650965096505091939550919395565b81600160008263ffffffff1663ffffffff16815260200190815260200160002060030160089054906101000a900473ffffffffffffffffffffffffffffffffffffffff1673ffffffffffffffffffffffffffffffffffffffff163373ffffffffffffffffffffffffffffffffffffffff16146117f7576040517f08c379a00000000000000000000000000000000000000000000000000000000081526004018080602001828103825260158152602001807f4e6f74207468652070726f64756374206f776e6572000000000000000000000081525060200191505060405180910390fd5b60008263ffffffff1611611873576040517f08c379a000000000000000000000000000000000000000000000000000000000815260040180806020018281038252601f8152602001807f5072696365206d7573742062652067726561746572207468616e207a65726f0081525060200191505060405180910390fd5b6000600260008763ffffffff1663ffffffff16815260200190815260200160002060010160009054906101000a900460ff1690506000600260008763ffffffff1663ffffffff16815260200190815260200160002060010160009054906101000a900460ff169050600060048111156118e857fe5b8260048111156118f457fe5b141561196e576001600481111561190757fe5b81600481111561191357fe5b14611969576040517f08c379a000000000000000000000000000000000000000000000000000000000815260040180806020018281038252602c81526020018061271c602c913960400191505060405180910390fd5b611b27565b6001600481111561197b57fe5b82600481111561198757fe5b1415611a21576003600481111561199a57fe5b8160048111156119a657fe5b14806119c757506004808111156119b957fe5b8160048111156119c557fe5b145b611a1c576040517f08c379a00000000000000000000000000000000000000000000000000000000081526004018080602001828103825260388152602001806126e46038913960400191505060405180910390fd5b611b26565b60036004811115611a2e57fe5b826004811115611a3a57fe5b1480611a5b5750600480811115611a4d57fe5b826004811115611a5957fe5b145b15611ad45760026004811115611a6d57fe5b816004811115611a7957fe5b14611acf576040517f08c379a000000000000000000000000000000000000000000000000000000000815260040180806020018281038252603981526020018061278f6039913960400191505060405180910390fd5b611b25565b6040517f08c379a000000000000000000000000000000000000000000000000000000000815260040180806020018281038252602481526020018061276b6024913960400191505060405180910390fd5b5b5b600080600881819054906101000a900463ffffffff168092919060010191906101000a81548163ffffffff021916908363ffffffff16021790555090506000600360008363ffffffff1663ffffffff1681526020019081526020016000209050868160000160006101000a81548163ffffffff021916908363ffffffff160217905550600260008963ffffffff1663ffffffff16815260200190815260200160002060010160019054906101000a900473ffffffffffffffffffffffffffffffffffffffff168160000160046101000a81548173ffffffffffffffffffffffffffffffffffffffff021916908373ffffffffffffffffffffffffffffffffffffffff160217905550428160000160186101000a81548163ffffffff021916908363ffffffff1602179055508581600001601c6101000a81548163ffffffff021916908363ffffffff1602179055508060000160049054906101000a900473ffffffffffffffffffffffffffffffffffffffff16600160008963ffffffff1663ffffffff16815260200190815260200160002060030160086101000a81548173ffffffffffffffffffffffffffffffffffffffff021916908373ffffffffffffffffffffffffffffffffffffffff16021790555085600160008963ffffffff1663ffffffff16815260200190815260200160002060030160006101000a81548163ffffffff021916908363ffffffff160217905550600460008863ffffffff1663ffffffff16815260200190815260200160002082908060018154018082558091505090600182039060005260206000209060089182820401919006600402909192909190916101000a81548163ffffffff021916908363ffffffff160217905550508060000160049054906101000a900473ffffffffffffffffffffffffffffffffffffffff1673ffffffffffffffffffffffffffffffffffffffff16600260008b63ffffffff1663ffffffff16815260200190815260200160002060010160019054906101000a900473ffffffffffffffffffffffffffffffffffffffff1673ffffffffffffffffffffffffffffffffffffffff168863ffffffff167fa581100f07cafa4eb033143a19cdbed52156fe4436d03be94e0c48578c989e8860405160405180910390a4505050505050505050565b6001602052806000526040600020600091509050806000018054600181600116156101000203166002900480601f016020809104026020016040519081016040528092919081815260200182805460018160011615610100020316600290048015611f275780601f10611efc57610100808354040283529160200191611f27565b820191906000526020600020905b815481529060010190602001808311611f0a57829003601f168201915b505050505090806001018054600181600116156101000203166002900480601f016020809104026020016040519081016040528092919081815260200182805460018160011615610100020316600290048015611fc55780601f10611f9a57610100808354040283529160200191611fc5565b820191906000526020600020905b815481529060010190602001808311611fa857829003601f168201915b505050505090806002018054600181600116156101000203166002900480601f0160208091040260200160405190810160405280929190818152602001828054600181600116156101000203166002900480156120635780601f1061203857610100808354040283529160200191612063565b820191906000526020600020905b81548152906001019060200180831161204657829003601f168201915b5050505050908060030160009054906101000a900463ffffffff16908060030160049054906101000a900463ffffffff16908060030160089054906101000a900473ffffffffffffffffffffffffffffffffffffffff16905086565b606080606080600460008663ffffffff1663ffffffff16815260200190815260200160002080548060200260200160405190810160405280929190818152602001828054801561215a57602002820191906000526020600020906000905b82829054906101000a900463ffffffff1663ffffffff168152602001906004019060208260030104928301926001038202915080841161211d5790505b50505050509050606081516040519080825280602002602001820160405280156121935781602001602082028038833980820191505090505b509050606082516040519080825280602002602001820160405280156121c85781602001602082028038833980820191505090505b50905060008090505b8351811015612355576121e261266e565b600360008684815181106121f257fe5b602002602001015163ffffffff1663ffffffff1681526020019081526020016000206040518060800160405290816000820160009054906101000a900463ffffffff1663ffffffff1663ffffffff1681526020016000820160049054906101000a900473ffffffffffffffffffffffffffffffffffffffff1673ffffffffffffffffffffffffffffffffffffffff1673ffffffffffffffffffffffffffffffffffffffff1681526020016000820160189054906101000a900463ffffffff1663ffffffff1663ffffffff16815260200160008201601c9054906101000a900463ffffffff1663ffffffff1663ffffffff1681525050905080606001518483815181106122fa57fe5b602002602001019063ffffffff16908163ffffffff1681525050612321816020015161248f565b83838151811061232d57fe5b602002602001019063ffffffff16908163ffffffff16815250505080806001019150506121d1565b508282829550955095505050509193909250565b60008060008061237761266e565b600360008763ffffffff1663ffffffff1681526020019081526020016000206040518060800160405290816000820160009054906101000a900463ffffffff1663ffffffff1663ffffffff1681526020016000820160049054906101000a900473ffffffffffffffffffffffffffffffffffffffff1673ffffffffffffffffffffffffffffffffffffffff1673ffffffffffffffffffffffffffffffffffffffff1681526020016000820160189054906101000a900463ffffffff1663ffffffff1663ffffffff16815260200160008201601c9054906101000a900463ffffffff1663ffffffff1663ffffffff1681525050905080600001518160200151826040015183606001519450945094509450509193509193565b600080600090505b600060049054906101000a900463ffffffff1663ffffffff168163ffffffff161015612549578273ffffffffffffffffffffffffffffffffffffffff16600260008363ffffffff1663ffffffff16815260200190815260200160002060010160019054906101000a900473ffffffffffffffffffffffffffffffffffffffff1673ffffffffffffffffffffffffffffffffffffffff16141561253c578091505061254f565b8080600101915050612497565b50600090505b919050565b828054600181600116156101000203166002900490600052602060002090601f016020900481019282601f1061259557805160ff19168380011785556125c3565b828001600101855582156125c3579182015b828111156125c25782518255916020019190600101906125a7565b5b5090506125d091906126be565b5090565b604051806060016040528060608152602001600060048111156125f357fe5b8152602001600073ffffffffffffffffffffffffffffffffffffffff1681525090565b6040518060c00160405280606081526020016060815260200160608152602001600063ffffffff168152602001600063ffffffff168152602001600073ffffffffffffffffffffffffffffffffffffffff1681525090565b6040518060800160405280600063ffffffff168152602001600073ffffffffffffffffffffffffffffffffffffffff168152602001600063ffffffff168152602001600063ffffffff1681525090565b6126e091905b808211156126dc5760008160009055506001016126c4565b5090565b9056fe537570706c696572732063616e206f6e6c79207472616e7366657220746f204469737472696275746f7273206f722052657461696c6572734d616e756661637475726572732063616e206f6e6c79207472616e7366657220746f20537570706c696572734f6e6c79206d616e756661637475726572732063616e206164642070726f64756374735472616e73666572732066726f6d20436f6e73756d657273206e6f7420616c6c6f7765644469737472696275746f727320616e642052657461696c6572732063616e206f6e6c79207472616e7366657220746f20436f6e73756d657273a165627a7a72305820353b025fe2c042b593663e2720cc284ffe7ba00d3d7bf04c460e116df368530d0029",
  "source": "pragma solidity ^0.5.0;\n\ncontract SupplyChain {\n    uint32 private productId = 0;  \n    uint32 private participantId = 0;\n    uint32 private ownerId = 0;\n\n    enum ParticipantType { Manufacturer, Supplier, Consumer, Distributor, Retailer }\n\n    struct Product {\n        string modelNumber;\n        string partNumber;\n        string serialNumber;\n        uint32 cost;\n        uint32 mfgTimeStamp;\n        address productOwner;\n    }\n\n    struct Participant {\n        string userName;\n        ParticipantType participantType;\n        address participantAddress;\n    }\n\n    struct Ownership {\n        uint32 productId;\n        address productOwner;\n        uint32 trxTimeStamp;\n        uint32 price;\n    }\n\n    mapping(uint32 => Product) public products;\n    mapping(uint32 => Participant) public participants;\n    mapping(uint32 => Ownership) public ownerships;\n    mapping(uint32 => uint32[]) public productTrack;\n\n    event TransferOwnership(uint32 indexed productId, address indexed from, address indexed to);\n    event ParticipantAdded(uint32 indexed participantId);\n    event ProductAdded(uint32 indexed productId);\n\n    function addParticipant(string memory _name, address _pAdd, ParticipantType _pType) public returns (uint32) {\n        uint32 userId = participantId++;\n        participants[userId] = Participant(_name, _pType, _pAdd);\n        emit ParticipantAdded(userId);\n        return userId;\n    }\n\n    function addProduct(uint32 _ownerId, string memory _modelNumber, string memory _partNumber, string memory _serialNumber, uint32 _productCost) public returns (uint32) {\n        require(participants[_ownerId].participantType == ParticipantType.Manufacturer, \"Only manufacturers can add products\");\n        uint32 newProductId = productId++;\n        products[newProductId] = Product(_modelNumber, _partNumber, _serialNumber, _productCost, uint32(block.timestamp), participants[_ownerId].participantAddress);\n        emit ProductAdded(newProductId);\n        return newProductId;\n    }\n\n    modifier onlyProductOwner(uint32 _productId) {\n        require(msg.sender == products[_productId].productOwner, \"Not the product owner\");\n        _;\n    }\n\n    function transferOwnership(uint32 _user1Id, uint32 _user2Id, uint32 _prodId, uint32 _newPrice) onlyProductOwner(_prodId) public {\n        require(_newPrice > 0, \"Price must be greater than zero\");\n\n        ParticipantType senderType = participants[_user1Id].participantType;\n        ParticipantType receiverType = participants[_user2Id].participantType;\n\n        if (senderType == ParticipantType.Manufacturer) {\n            require(receiverType == ParticipantType.Supplier, \"Manufacturers can only transfer to Suppliers\");\n        } else if (senderType == ParticipantType.Supplier) {\n            require(receiverType == ParticipantType.Distributor || receiverType == ParticipantType.Retailer, \"Suppliers can only transfer to Distributors or Retailers\");\n        } else if (senderType == ParticipantType.Distributor || senderType == ParticipantType.Retailer) {\n            require(receiverType == ParticipantType.Consumer, \"Distributors and Retailers can only transfer to Consumers\");\n        } else {\n            revert(\"Transfers from Consumers not allowed\");\n        }\n\n        uint32 newOwnerId = ownerId++;\n        Ownership storage newOwnership = ownerships[newOwnerId];\n        newOwnership.productId = _prodId;\n        newOwnership.productOwner = participants[_user2Id].participantAddress;\n        newOwnership.trxTimeStamp = uint32(block.timestamp);\n        newOwnership.price = _newPrice;\n\n        products[_prodId].productOwner = newOwnership.productOwner;\n        products[_prodId].cost = _newPrice;\n        productTrack[_prodId].push(newOwnerId);\n\n        emit TransferOwnership(_prodId, participants[_user1Id].participantAddress, newOwnership.productOwner);\n    }\n\n    function getProduct(uint32 _productId) public view returns (string memory, string memory, string memory, uint32, address, uint32) {\n        Product memory product = products[_productId];\n        return (product.modelNumber, product.partNumber, product.serialNumber, product.cost, product.productOwner, product.mfgTimeStamp);\n    }\n\n    function getParticipant(uint32 _participantId) public view returns (string memory, ParticipantType, address) {\n        Participant memory participant = participants[_participantId];\n        return (participant.userName, participant.participantType, participant.participantAddress);\n    }\n\n    function getProvenance(uint32 _prodId) external view returns (uint32[] memory, uint32[] memory, uint32[] memory) {\n        uint32[] memory ownershipIds = productTrack[_prodId];\n        uint32[] memory prices = new uint32[](ownershipIds.length);\n        uint32[] memory ownerIds = new uint32[](ownershipIds.length);\n\n        for (uint i = 0; i < ownershipIds.length; i++) {\n            Ownership memory ownership = ownerships[ownershipIds[i]];\n            prices[i] = ownership.price;\n            ownerIds[i] = findOwnerId(ownership.productOwner);\n        }\n\n        return (ownershipIds, prices, ownerIds);\n    }\n\n    function findOwnerId(address _ownerAddress) internal view returns (uint32) {\n        for (uint32 i = 0; i < participantId; i++) {\n            if (participants[i].participantAddress == _ownerAddress) {\n                return i;\n            }\n        }\n        return 0; // Return a default value if not found\n    }\n\n    function getOwnership(uint32 _ownershipId) public view returns (uint32, address, uint32, uint32) {\n        Ownership memory ownership = ownerships[_ownershipId];\n        return (ownership.productId, ownership.productOwner, ownership.trxTimeStamp, ownership.price);\n    }\n}\n",
  "sourcePath": "/Users/aniketpatil/Desktop/des/supplyChainApp/contracts/SupplyChain.sol",
  "compiler": {
    "name": "solc",
    "version": "0.5.8+commit.23d335f2.Emscripten.clang"
  },
  "schemaVersion": "3.4.16",
  "updatedAt": "2024-04-12T04:22:17.782Z",
  "networkType": "ethereum",
  "devdoc": {
    "methods": {}
  },
  "userdoc": {
    "methods": {}
  }
}